:020000040000FA
:060000000A128A110E280D
:10000800FE00030EF1000408F2000A08F3000A12C9
:100018008A114E290A128A11112883133530FD00DE
:100028000230FE001930FF002B3084000A128A11BA
:100038000A220A128A11B501B601B701B801F60100
:10004800F701F801F90183010A128A11D8298312EC
:100058000313A501A11F312832283928A009A109B5
:10006800A00A0319A10AA501A50AA31F3C283D2837
:100078004628A209A309A20A0319A30A0130F40019
:100088007408A506A601A7012008210403194D2814
:100098004E288528A401A40A5C2801300310A00D6D
:1000A800A10DFF3E031D52280130F4007408A40777
:1000B800A11F5F286028512801300310A60DA70D45
:1000C800FF3E031D612821082302031D6D28200817
:1000D8002202031C7028712878282008A20221080F
:1000E800031CA303A302261401300310A10CA00CC7
:1000F800FF3E031D79280130A402031D84288528AA
:1001080060282508031989288A288F28A609A7099D
:10011800A60A0319A70A2708A1002608A0000800B4
:10012800643083120313A0000030A1007708A800F0
:10013800A9012808A2002908A3000A128A112B2065
:100148000A128A11831203132008AA002A08F90048
:100158006430A0000030A1007708A800A901280891
:10016800A2002908A3000A128A11F3200A128A1190
:10017800831203132008AA002A08F6000A30A000F8
:100188000030A1007608A800A9012808A2002908C3
:10019800A3000A128A112B200A128A118312031350
:1001A8002008AA002A08F8000A30A0000030A100A0
:1001B8007608A800A9012808A2002908A3000A12A5
:1001C8008A11F3200A128A11831203132008AA0045
:1001D8002A08B7003708A8002808B80008008312C2
:1001E8000313A501A31FF928FA280129A209A309C5
:1001F800A20A0319A30AA501A50AA11F0429052912
:100208000A29A009A109A00A0319A10A20082104A2
:1002180003190F2910293F29A401A40A1E29013016
:100228000310A00DA10DFF3E031D14290130F40099
:100238007408A407A11F21292229132921082302B0
:10024800031D282920082202031C2B292C293229C6
:100258002008A2022108031CA303A30201300310F3
:10026800A10CA00CFF3E031D33290130A402031D7D
:100278003E293F29222925080319432944294929C8
:10028800A209A309A20A0319A30A2308A1002208A4
:10029800A00008000B1D5129522984298312031339
:1002A8000910891478082B3E8400831300088800FD
:1002B8000130B5000030B60035033604031D65294A
:1002C800662971298910091579082B3E84000008D0
:1002D80088000230B5000030B6000230350636041A
:1002E800031D7729782981290911091438082B3E1B
:1002F800840000088800B501B6010B11FF308100A9
:10030800831203130C1F89298A299B291F0CF000CB
:10031800700C0F39003A031D9229932996291E085B
:1003280087009A291E08F0007008F7000C1373085C
:100338008A0072088400710E8300FE0E7E0E09008A
:100348000330831603178800FF30890003308316B3
:10035800031385008701880189018312031385012E
:100368008601870188018901831603130F138F16ED
:100378000F120F14811281110115811401149F139A
:100388001F129F12831203131F179F17C3309F0555
:100398001F148B178B160B110B17831603130C17CF
:1003A800831203130C1308000A128A11A4210A12DB
:1003B8008A11831203139F14831203139F18E529CC
:1003C800E629FD291F0CF500750C0F39013A031DAC
:1003D800EE29EF29F229C3309F05F6291F08C339F2
:1003E80004389F002130F500F50BF8298312031318
:1003F8009F140A128A1194200A128A11E0290A12FB
:100408008A110E287E088A007F0882000A128A1143
:1004180006220A128A118000840A04087D0603193C
:100428000034FF0A0319FE0A0A2A3F3406345B34F3
:0E0438004F3466346D347D3407347F346F34B6
:04400E00C420FF3F8C
:00000001FF
